:020000000000FE
:020001000000FD
:020002000000FC
:020003000000FB
:020004000000FA
:020005000000F9
:020006000000F8
:020007000000F7
:020008000000F6
:020009000000F5
:02000A000000F4
:02000B000000F3
:02000C000000F2
:02000D000000F1
:02000E000000F0
:02000F000000EF
:020010000000EE
:020011000000ED
:020012000000EC
:020013000000EB
:020014000000EA
:020015000000E9
:020016000000E8
:020017000000E7
:0200180001A045
:02001900010CD8
:02001A000000E4
:02001B00008261
:02001C000000E2
:02001D00008160
:02001E0000835D
:02001F000000DF
:0200200001D00D
:0200210002D00B
:0200220003D009
:0200230004D007
:0200240008D002
:0200250009D000
:020026000AD0FE
:020027000000D7
:0200280005D001
:0200290006D0FF
:02002A0007D0FD
:02002B000000D3
:02002C000BD0F7
:02002D000CD0F5
:02002E000DD0F3
:02002F000000CF
:0200300001903D
:0200310002903B
:02003200039039
:02003300049037
:02003400089032
:02003500099030
:020036000A902E
:020037000000C7
:02003800059031
:0200390006902F
:02003A0007902D
:02003B000000C3
:02003C000B9027
:02003D000C9025
:02003E000D9023
:02003F000000BF
:00000001FF
